:020000040800F2
:10000000000002208D3C00085D0800085F08000821
:100010006108000863080008650800080000000087
:100020000000000000000000000000006708000859
:1000300069080008000000006B0800086D0800084F
:10004000DD3C0008DD3C0008DD3C0008DD3C00082C
:10005000DD3C0008DD3C0008DD3C0008DD3C00081C
:10006000DD3C0008DD3C0008DD3C0008DD3C00080C
:10007000DD3C0008DD3C0008DD3C0008DD3C0008FC
:10008000DD3C0008DD3C0008DD3C0008DD3C0008EC
:10009000DD3C0008DD3C0008DD3C0008DD3C0008DC
:1000A000DD3C0008DD3C0008DD3C0008DD3C0008CC
:1000B000DD3C0008DD3C0008DD3C0008DD3C0008BC
:1000C000DD3C0008DD3C0008DD3C0008DD3C0008AC
:1000D000DD3C0008DD3C0008DD3C0008DD3C00089C
:1000E000DD3C0008DD3C000800000000DD3C0008AD
:1000F000DD3C0008DD3C0008DD3C0008DD3C00087C
:10010000DD3C0008DD3C0008DD3C0008DD3C00086B
:10011000DD3C0008DD3C0008DD3C0008DD3C00085B
:10012000DD3C0008DD3C0008DD3C0008DD3C00084B
:10013000DD3C0008DD3C0008DD3C0008DD3C00083B
:1001400000000000000000000000000000000000AF
:10015000DD3C0008DD3C0008DD3C0008DD3C00081B
:10016000DD3C0008DD3C0008DD3C0008DD3C00080B
:10017000DD3C0008DD3C0008DD3C0008000000001C
:10018000DD3C0008DD3C0008DD3C0008DD3C0008EB
:10019000DD3C0008DD3C0008DD3C0008DD3C0008DB
:1001A000DD3C0008DD3C0008DD3C0008DD3C0008CB
:1001B000DD3C0008DD3C0008DD3C0008DD3C0008BB
:1001C000DD3C0008DD3C0008DD3C0008DD3C0008AB
:1001D000DD3C0008DD3C0008DD3C0008DD3C00089B
:1001E000DD3C0008DD3C0008DD3C0008DD3C00088B
:1001F000DD3C0008DD3C0008DD3C0008DD3C00087B
:10020000DD3C0008DD3C0008DD3C0008DD3C00086A
:10021000DD3C0008DD3C0008DD3C0008DD3C00085A
:10022000DD3C0008DD3C0008DD3C0008000000006B
:10023000DD3C0008DD3C000800000000DD3C00085B
:10024000DD3C0008DD3C0008DD3C0008DD3C00082A
:10025000DD3C0008DD3C0008DD3C0008DD3C00081A
:10026000DD3C0008DD3C0008DD3C0008DD3C00080A
:10027000DD3C0008DD3C0008DD3C0008000000001B
:10028000DD3C0008DD3C0008DD3C0008000000000B
:0802900000000000DD3C000845
:1002980010B5054C237833B9044B13B10448AFF3B8
:1002A80000800123237010BD7C01002000000000A5
:1002B8003846000808B5034B1BB103490348AFF3A0
:1002C800008008BD000000008001002038460008BA
:1002D80053B94AB9002908BF00281CBF4FF0FF31A5
:1002E8004FF0FF3000F06AB9ADF1080C6DE904CEAB
:1002F80000F006F8DDF804E0DDE9022304B07047F9
:100308002DE9F047089D0C46002B4ED194468C45AC
:100318008646B2FA82F262D94AB1C2F1200391400C
:1003280020FA03F30CFA02FC194300FA02FE4FEA22
:100338001C471FFA8CF6B1FBF7F44FEA1E4307FB84
:10034800141143EA014304FB06F199420AD91CEB54
:10035800030304F1FF3080F01281994240F20F81CB
:10036800023C6344591A1FFA8EF3B1FBF7F007FBFE
:10037800101143EA014300FB06F69E420AD91CEB22
:10038800030300F1FF3180F0FC809E4240F2F980C7
:10039800634402389B1B40EA044000211DB1D3404E
:1003A8000022C5E90032BDE8F0878B4205D90DB1BE
:1003B800C5E9000100210846F5E7B3FA83F10029F1
:1003C80046D1A34202D39042C0F0F080861A64EB73
:1003D80003030120002DE6D0C5E90063E3E7002A06
:1003E80040F09080A1EB0C044FEA1C481FFA8CF7F0
:1003F8000121B4FBF8F64FEA1E4308FB164443EA12
:10040800044307FB06F0984208D91CEB030306F1E6
:10041800FF3402D2984200F2CD8026461C1A1FFAF9
:100428008EF3B4FBF8F008FB104443EA044300FBE6
:1004380007F79F4208D91CEB030300F1FF3402D2EF
:100448009F4200F2B0802046DB1B40EA0640A5E749
:10045800C1F120068B4022FA06F71F4320FA06FC5A
:1004680004FA01F343EA0C03F44000FA01F8380CEB
:100478004FEA1349B4FBF0FE1FFA87FC00FB1E4449
:1004880049EA04440EFB0CF9A14502FA01F20AD923
:100498003C190EF1FF3A80F08480A14540F281803A
:1004A800AEF1020E3C44A4EB09041FFA83F9B4FB35
:1004B800F0F300FB134449EA044403FB0CFCA44595
:1004C80007D93C1903F1FF3067D2A44565D9023B2F
:1004D8003C4443EA0E40A0FB0293A4EB0C049C426C
:1004E800CE469C4651D34ED055B1B8EB0E0364EBC3
:1004F8000C0404FA06F6CB401E43CC40C5E9006460
:10050800002150E7C2F1200320FA03F10CFA02FCA3
:1005180024FA03F394400C434FEA1C4800FA02FE05
:100528001FFA8CF7B3FBF8F008FB1031230C43EAF1
:10053800014300FB07F1994208D91CEB030300F1C2
:10054800FF362CD299422AD9023863445B1AA4B2E6
:10055800B3FBF8F108FB113344EA034401FB07F34A
:10056800A34208D91CEB040401F1FF3613D2A342BD
:1005780011D902396444E41A41EA004139E70446D2
:10058800F0E6084606E7C845AED2B9EB020E63EBC3
:10059800070C0138A8E73146EDE7034699E73046EE
:1005A800D4E7D6467FE7634402384DE7064623463C
:1005B80008460FE7023E634430E700BF704700BFBC
:1005C80072B6FEE700B59DB04C22002109A803F0E1
:1005D8007BFD2022002101A803F076FD022002F015
:1005E80099FE00230093254BDA6A22F00102DA62B1
:1005F800DB6A03F001030093214B9A6942F44042FD
:100608009A619B6903F440430093009B1C4B9B69D0
:1006180013F4005FFAD00223099301220C924022BE
:100628000D921293002213920421149132211591F4
:100638001693179318930C2319931A921B9209A8CF
:1006480000F00EFFB0B93F23019303230293002368
:100658000393082304934023059306934FF4806281
:1006680007920893022101A801F04EFB20B91DB0A2
:100678005DF804FBFFF7A4FFFFF7A2FF0004005892
:100688000048025808B502F097FEFFF79BFF00F0FC
:100698000FF800F05FF803F04DFA03F0BDFA03F02D
:1006A80003FA024803F030FCFBE700BF504600089D
:1006B80010B588B01D4BD3F8E02042F08002C3F893
:1006C800E020D3F8E02002F080020092009AD3F8EC
:1006D800E02042F00102C3F8E020D3F8E02002F065
:1006E80001020192019AD3F8E02042F00402C3F813
:1006F800E020D3F8E03003F004030293029B0C4C93
:1007080001220221204602F0FFFD002303930493F7
:1007180005930693079302230393012204920693F9
:1007280003A9204602F0E0FC08B010BD00440258BE
:100738000008025800B583B001904FF6FF730122FC
:1007480001A9034800F0FCFC019803B05DF804FB24
:100758009801002008B51748174B03604FF4E133A0
:10076800436000238360C36003610C22426183619C
:10077800C36103624362836200F0AFFD70B9002178
:100788000C4800F022FE60B900210A4800F042FE41
:1007980050B9084800F0FAFD48B908BDFFF710FF46
:1007A800EDE7FFF70DFFEFE7FFF70AFFF1E7FFF7C8
:1007B80007FFF2E7980100200010014010B5B8B01B
:1007C8000446002133913491359136913791C022F6
:1007D80002A803F079FC22681B4B9A4201D038B07A
:1007E80010BD01220023CDE9022302A801F028FD53
:1007F80038BB164BD3F8F02042F01002C3F8F020B3
:10080800D3F8F02002F010020092009AD3F8E0200A
:1008180042F00102C3F8E020D3F8E03003F001030E
:100828000193019B4FF4C063339302233493002355
:10083800359336930723379333A9054802F054FCC0
:10084800CDE7FFF7BDFED4E7001001400044025891
:1008580000000258FEE7FEE7FEE7FEE7FEE7704706
:100868007047704708B502F0D5FD08BD82B0074B48
:10087800D3F8F42042F00202C3F8F420D3F8F4309D
:1008880003F002030193019B02B070470044025831
:10089800002807DB00F01F02400901239340024AA9
:1008A80042F82030704700BF00E100E0002804DB78
:1008B8000901C9B2044B1954704700F00F0009012F
:1008C800C9B2024B1954704700E400E014ED00E08F
:1008D80000B500F00700C0F1070CBCF1040F28BFF9
:1008E8004FF0040C031D062B0FD9C31E4FF0FF3E1B
:1008F8000EFA0CF021EA000199400EFA03FE22EAF2
:100908000E0241EA02005DF804FB0023EEE7000056
:100918000649CB6823F4E0631B041B0C000200F4B7
:10092800E0600343024A1A43CA60704700ED00E0E2
:100938000000FA0510B50446054BD868C0F302203C
:10094800FFF7C6FF01462046FFF7B0FF10BD00BF06
:1009580000ED00E008B5FFF79BFF08BD0138B0F1D6
:10096800807F0BD24FF0E0235861054AF02182F8CE
:1009780023100020986107221A61704701207047F0
:1009880000ED00E0026852E8003F23F4907342E86B
:1009980000310029F6D1026802F1080353E8001F6C
:1009A8000D4B0B40083242E800310029F3D1C36EE9
:1009B800012B06D02023C0F88C300023C366436780
:1009C8007047026852E8003F23F0100342E8003104
:1009D8000029F6D1EEE700BFFEFFFFEF70B586B045
:1009E8000446016883680269134342691343C26974
:1009F80013430868884A02401A430A602268536809
:100A080023F44053E1680B435360A1692268834B88
:100A18009A4201D0236A19439068814B03400B43E3
:100A280093602268D36A23F00F03616A0B43D36291
:100A380022687C4B9A4221D07B4B9A4200F08C80F2
:100A48007A4B9A4200F0A280794B9A4200F0B58026
:100A5800784B9A4200F0C880774B9A4200F0F480B5
:100A6800764B9A4200F01981754B9A4200F02C811E
:100A78006A4B9A4200F03F81802333E0714B5B6DF3
:100A880003F03803282B65D8DFE813F02900640049
:100A98006400640064006400640064004D01640044
:100AA8006400640064006400640064002B00640057
:100AB8006400640064006400640064005E00640014
:100AC8006400640064006400640064006000640002
:100AD8006400640064006400640064006200012330
:100AE80000E008234D498A4200F02F81E069B0F503
:100AF800004F00F0AF81202B00F20782202B00F27C
:100B08005182DFE813F01E0224024F024F0227022F
:100B18004F024F024F022C024F024F024F024F0268
:100B28004F024F024F0231024F024F024F024F0253
:100B38004F024F024F024F024F024F024F024F0225
:100B48004F024F024F023D021023CBE72023C9E793
:100B58004023C7E78023C5E73A4B5B6D03F00703E3
:100B6800052B11D8DFE813F00600E10008000A00A1
:100B78000C000E000023B5E70823B3E71023B1E704
:100B88002023AFE74023ADE78023ABE72D4B5B6D18
:100B980003F00703052B0ED8DFE803F003C90507A8
:100BA800090B00239EE708239CE710239AE72023DC
:100BB80098E7402396E7802394E7224B5B6D03F088
:100BC8000703052B0ED8DFE803F003B40507090B6C
:100BD800002387E7082385E7102383E7202381E79D
:100BE80040237FE780237DE7164B5B6D03F0070307
:100BF800052B0ED8DFE803F0039F0507090B002338
:100C080070E708236EE710236CE720236AE7402388
:100C180068E7802366E700BFF369FFCF000C005840
:100C2800FFF4FF110010014000440040004800405C
:100C3800004C004000500040001401400078004083
:100C4800007C0040004402587D4B5B6D03F0380384
:100C5800282B20D8DFE803F0151F1F1F1F1F1F1F99
:100C6800711F1F1F1F1F1F1F171F1F1F1F1F1F1F42
:100C7800191F1F1F1F1F1F1F1B1F1F1F1F1F1F1F86
:100C88001D0001232EE708232CE710232AE7202341
:100C980028E7402326E7802324E7694B5B6D03F0B0
:100CA8000703052B0ED8DFE803F0034A0507090BF5
:100CB800002317E7082315E7102313E7202311E77C
:100CC80040230FE780230DE75D4B5B6D03F00703BF
:100CD800052B0ED8DFE803F003350507090B0023C1
:100CE80000E70823FEE61023FCE62023FAE640236B
:100CF800F8E68023F6E603F50E339B6D03F0070351
:100D0800052B0ED8DFE803F0031F0507090B0223A4
:100D1800E8E60823E6E61023E4E62023E2E640239B
:100D2800E0E68023DEE60423DCE60423DAE6042397
:100D3800D8E60423D6E60423D4E60423D2E6042323
:100D4800D0E60423CEE60423CCE6202B27D8022BBA
:100D5800C0F01A81023B1E2B00F21881DFE813F065
:100D68005000160156001601160116015B00160107
:100D7800160116011601160116011601600016016A
:100D880016011601160116011601160116011601A3
:100D98001601160116011601160116016C00402BEA
:100DA8002CD14FF40040626A264B33F81220B0FB76
:100DB800F2F3656805EB4501994200F2E980B3EB6F
:100DC800053F00F2E780002633463146FFF780FAF8
:100DD800090241EA106100026B08C0182A4633462E
:100DE80041F10001FFF774FAA0F54072164B9A42E0
:100DF80000F2D2802368D8603046D4E00120D2E0E7
:100E080001F064FF0028CED10020CCE003A801F057
:100E18006FFF0498F6E7684602F068F80198F1E772
:100E2800074B1B6813F0200F08D0054B1B68C3F352
:100E3800C1030648D840B6E70548B4E70348B2E717
:100E48000044025860460008FFFC0F000090D003E1
:100E580000093D00202B15D8202B00F29F80DFE8E9
:100E680003F031379D9D3A9D9D9D3F9D9D9D9D9D84
:100E78009D9D449D9D9D9D9D9D9D9D9D9D9D9D9DF3
:100E88009D9D5000402B1BD1626A4D4B33F81230A8
:100E9800B0FBF3F06268530803EB4003B3FBF2F3D3
:100EA800A3F110014FF6EF72914279D89AB222F06D
:100EB8000F02C3F3420313432268D360002072E099
:100EC800012070E001F08CF80028DDD100206AE0F4
:100ED80001F098F8F8E703A801F00AFF0498F3E78F
:100EE800684602F003F80198EEE7364B1B6813F0EA
:100EF800200F08D0334B1B68C3F3C1033248D840D6
:100F0800C2E73248C0E73048BEE7402B17D14FF45C
:100F18000040626A2A4B33F81230B0FBF3F0636882
:100F280000EB5300B0FBF3F0A0F110024FF6EF73A3
:100F38009A4242D8236880B2D860002033E001206A
:100F480031E001F04DF80028E3D100202BE001F05A
:100F580059F8F8E703A801F0CBFE0498F3E76846D0
:100F680001F0C4FF0198EEE7164B1B6813F0200F41
:100F780008D0144B1B68C3F3C1031348D840C8E713
:100F88001248C6E71048C4E701200CE001200AE037
:100F9800012008E0012006E0012004E0012002E031
:100FA800012000E001200123A4F86A30A4F8683089
:100FB80000236367A36706B070BD0120F3E700BF95
:100FC80060460008004402580090D00300093D0024
:100FD800836A13F0080F06D00268536823F40043AD
:100FE800816B0B435360836A13F0010F06D00268CC
:100FF800536823F40033C16A0B435360836A13F0C8
:10100800020F06D00268536823F48033016B0B4348
:101018005360836A13F0040F06D00268536823F400
:101028008023416B0B435360836A13F0100F06D083
:101038000268936823F48053C16B0B439360836AFF
:1010480013F0200F06D00268936823F40053016C54
:101058000B439360836A13F0400F0AD00268536809
:1010680023F48013416C0B435360436CB3F5801F2A
:101078000BD0836A13F0800F06D00268536823F4FC
:101088000023C16C0B43536070470268536823F414
:10109800C003816C0B435360EBE72DE9F843054629
:1010A8000E4617469946DDF820802B68DC6936EA3B
:1010B80004040CBF01240024BC423AD1B8F1FF3F1C
:1010C800F3D002F0B3F9A0EB0900404534D8B8F1E9
:1010D800000F33D02B681A6812F0040FE5D0B6F170
:1010E800400218BF0122802EDFD0002ADDD0DA6945
:1010F80012F0080F11D1DA6912F4006FD5D04FF44D
:1011080000621A622846FFF73DFC2023C5F890309C
:10111800002385F8843003200CE008241C6228464C
:10112800FFF730FCC5F89040002385F88430012093
:1011380000E00020BDE8F8830320FBE70320F9E77F
:101148002DE9F04182B01E46D0F88830202B5BD1C3
:1011580004460D469046002A18BF002901D10120F7
:1011680053E00023C0F890302123C0F8883002F003
:101178005DF90746A4F85480A4F85680A368B3F52F
:10118800805F02D04FF0000816E0236943B34FF0A8
:10119800000811E02023C4F88830032035E038F82F
:1011A800023B2268C3F308039362B4F8562092B254
:1011B800013A92B2A4F85620B4F856309BB293B1D3
:1011C80000963B46002280212046FFF766FF002854
:1011D800E0D1002DE3D015F8012B23689A62E4E7EB
:1011E800A8460025E8E700963B4600224021204615
:1011F800FFF753FF18B92023C4F8883005E02023EF
:10120800C4F88830032000E0022002B0BDE8F08175
:1012180030B583B004460023C0F8903002F006F9D8
:1012280005462268126812F0080F10D123681B685F
:1012380013F0040F28D12023C4F88830C4F88C3068
:101248000020E066206784F8840003B030BD6FF0AA
:101258007E430093034600224FF400112046FFF717
:101268001CFF0028E2D0226852E8003F23F08003E8
:1012780042E800310029F6D12023C4F88830002341
:1012880084F884300320E0E76FF07E4300932B4618
:1012980000224FF480012046FFF7FFFE0028CAD045
:1012A800226852E8003F23F4907342E80031002995
:1012B800F6D1226802F1080353E8003F23F0010346
:1012C800083242E800310029F3D12023C4F88C30D9
:1012D800002384F884300320B7E778B310B50446B8
:1012E800D0F888300BB32423C4F8883022681368F8
:1012F80023F001031360A36AE3B92046FFF76EFBEE
:10130800012811D02268536823F49043536022685F
:10131800936823F02A0393602268136843F001035B
:1013280013602046FFF774FF10BD80F88430FFF784
:1013380045FAD8E72046FFF74BFEDEE70120704765
:10134800436E2BB90123A0F86A30A0F868307047C3
:1013580030B403689A68C2F342629968490F094D2C
:101368006B5C1B01084C615C93FBF1F3A0F86A30DD
:10137800AB5C1B01A25C93FBF2F3A0F8683030BCB5
:10138800704700BF804600087846000890F884300F
:10139800012B18D0012380F884302423C0F888302A
:1013A80003681A68196821F00101196022F00052D7
:1013B8000023436601680A602022C0F8882080F86C
:1013C8008430184670470220704738B590F884304A
:1013D800012B1DD00446012380F884302423C0F853
:1013E800883003681D681A6822F001021A600268D2
:1013F800936823F0604319439160FFF7A1FF2368C6
:101408001D602023C4F88830002084F8840038BD8B
:101418000220FCE738B590F88430012B1DD0044633
:10142800012380F884302423C0F8883003681D68BD
:101438001A6822F001021A600268936823F0606358
:1014480019439160FFF77CFF23681D602023C4F8CF
:101458008830002084F8840038BD0220FCE70000B2
:10146800002800F0398338B50446036813F0010FEB
:1014780025D0944A136903F03803926A102B15D0CB
:10148800182B0FD06368B3F5803F3FD0002B53D1A2
:101498008C4B1A6822F480321A601A6822F480226F
:1014A8001A6038E002F00302022AEBD1854B1B6870
:1014B80013F4003F03D06368002B00F00F83236808
:1014C80013F0020F00F0A1807E4A1369926A13F0AC
:1014D80038035AD0182B55D0E368002B00F0DE8073
:1014E80078490A6822F0190213430B6001F09EFF45
:1014F8000546744B1B6813F0040F40F0AD8001F0F3
:1015080095FF401B0228F4D90320EEE26D4A1368C8
:1015180043F48033136063682BB301F087FF0546FB
:10152800684B1B6813F4003FC9D101F07FFF401BD3
:101538006428F5D90320D8E2B3F5A02F09D0614B70
:101548001A6822F480321A601A6822F480221A601B
:10155800E1E75C4B1A6842F480221A601A6842F488
:1015680080321A60D7E701F061FF0546554B1B68CA
:1015780013F4003FA3D001F059FF401B6428F5D9AC
:101588000320B2E212F0030FA6D14E4B1B6813F0F2
:10159800040F03D0E368002B00F0A282494A1368C5
:1015A80023F01903E1680B43136001F03FFF054680
:1015B800444B1B6813F0040F06D101F037FF401BA2
:1015C8000228F5D9032090E201F04AFF41F2030313
:1015D800984212D82269402A07D03A494B6823F426
:1015E8007C3343EA02334B600FE0364A536823F4F6
:1015F8007C3343F40033536007E0324A536823F0E6
:10160800FE43216943EA01635360236813F0100F16
:1016180000F088802B4A136903F03803926A082B7C
:1016280056D0182B50D0E369002B00F0B880254A1B
:10163800136843F08003136001F0F8FE0546214B60
:101648001B6813F4807F40F0888001F0EFFE401B98
:101658000228F4D9032048E201F002FF41F2030313
:10166800984212D82269402A07D016494B6823F4B9
:101678007C3343EA02334B60C7E7124A536823F4CA
:101688007C3343F400335360BFE70E4A536823F0BA
:10169800FE43216943EA01635360B6E7094A1368C8
:1016A80023F00103136001F0C1FE0546054B1B68DA
:1016B80013F0040FA9D001F0B9FE401B0228F5D998
:1016C800032012E20044025802F00302012AAAD1C0
:1016D800A14B1B6813F4807F03D0E369802B40F093
:1016E800018201F0BDFE41F20303984212D8226A3A
:1016F800202A07D098494B6823F0F84343EA8263CD
:101708004B600FE0944A536823F0F84343F080435A
:10171800536007E0904AD36823F07C53216A43EA78
:101728000163D360236813F0080F60D06369002B4E
:1017380049D0894A536F43F00103536701F076FE9D
:101748000546854B5B6F13F0020F50D101F06EFE1A
:10175800401B0228F5D90320C7E101F081FE41F2C0
:101768000303984212D8226A202A07D07A494B6884
:1017780023F0F84343EA82634B60D3E7764A536821
:1017880023F0F84343F080435360CBE7724AD368B1
:1017980023F07C53216A43EA0163D360C2E76E4AAF
:1017A800136823F08003136001F040FE05466A4B7E
:1017B8001B6813F4807FB5D001F038FE401B022867
:1017C800F5D9032091E1644A536F23F0010353676D
:1017D80001F02CFE0546604B5B6F13F0020F06D03C
:1017E80001F024FE401B0228F5D903207DE123687F
:1017F80013F0200F29D0A3699BB1574A136843F40B
:101808008053136001F012FE0546534B1B6813F416
:10181800005F1AD101F00AFE401B0228F5D9032007
:1018280063E14D4A136823F48053136001F0FEFD11
:101838000546494B1B6813F4005F06D001F0F6FD1E
:10184800401B0228F5D903204FE1236813F0040F49
:1018580021D1636A002B00F047813F4A126902F0E8
:101868003802182A00F0EE80022B79D03A4A136821
:1018780023F08073136001F0D9FD0446364B1B68D2
:1018880013F0007F00F0DC8001F0D0FD001B02287F
:10189800F4D9032029E1314A136843F480731360B3
:1018A80001F0C4FD05462D4B1B6813F4807F06D15B
:1018B80001F0BCFD401B6428F5D9032015E1A3689D
:1018C800012B0AD00BBB244B1A6F22F001021A67B6
:1018D8001A6F22F004021A6704E01F4A136F43F0DC
:1018E80001031367A36833B301F0A0FD05461A4B43
:1018F8001B6F13F0020FACD101F098FD401B41F2B1
:1019080088339842F3D90320EFE0052B09D0124B16
:101918001A6F22F001021A671A6F22F004021A677E
:10192800E0E70D4B1A6F42F004021A671A6F42F093
:1019380001021A67D6E701F079FD0546064B1B6FD1
:1019480013F0020F85D001F071FD401B41F288337E
:101958009842F3D90320C8E00044025800480258CE
:10196800694A136823F08073136001F05FFD054630
:10197800654B1B6813F0007F06D001F057FD401B34
:101988000228F5D90320B0E05F4B996A5F4A0A4004
:10199800A16AE06A41EA00110A439A62226B013A9D
:1019A800C2F30802616B0139490289B20A43A16B8B
:1019B8000139090401F4FE010A43E16B0139090602
:1019C80001F0FE410A431A63DA6A22F00102DA6280
:1019D800596B4F4A0A40A16C42EAC1025A63DA6A5B
:1019E80022F00C02216C0A43DA62DA6A22F002025F
:1019F800616C0A43DA62DA6A42F48032DA62DA6ADD
:101A080042F40032DA62DA6A42F48022DA62DA6A8E
:101A180042F00102DA621A6842F080721A6001F03C
:101A280005FD0446384B1B6813F0007F06D101F012
:101A3800FDFC001B0228F5D9032056E0002054E0E5
:101A4800002052E0304A916A106B012B4ED001F011
:101A58000303A26A93424BD1C1F30511E36A994289
:101A680048D1C0F30802236B013B9A4244D1C0F32A
:101A78004622636B013B9A4240D1C0F30642A36BF6
:101A8800013B9A423CD1C0F30660E36B013B9842AC
:101A980038D11D4B5B6BC3F3CC03A26C9A4201D1C6
:101AA800002022E0184AD36A23F00103D36201F030
:101AB800BDFC054601F0BAFCA842FBD0124A516BA6
:101AC800134B0B40A16C43EAC1035363D36A43F041
:101AD8000103D362002008E001207047012004E0E0
:101AE800012002E0012000E0002038BD0120FCE7D1
:101AF8000120FAE70120F8E70120F6E70120F4E7E2
:101B08000120F2E70120F0E7004402580CFCFFFF37
:101B18000700FFFF744B1B6903F03803102B00F01C
:101B2800DE80182B0FD00BB1704870476E4B1B68C6
:101B380013F0200F00F0D5806B4B1B68C3F3C10373
:101B48006B48D840704710B4674B9A6A02F003029A
:101B58009C6AC4F30510D96A01F001015B6BC3F3F9
:101B6800CC0301FB03F307EE903AF8EE677A14F41E
:101B78007C7F00F09480012A66D0022A00F09280CF
:101B8800E2B107EE100AF8EE476A9FED5A6A86EE50
:101B9800267A554B1B6BC3F3080306EE903AF8EE12
:101BA800666A9FED556A67EE867A76EEA77AF7EE53
:101BB800006A77EEA67A27EE277A61E04A4B1B681F
:101BC80013F0200F23D048490A68C2F3C102484BDA
:101BD800D34007EE103AF8EE476A07EE100AB8EE5F
:101BE800476A86EE867A0B6BC3F3080306EE903AD3
:101BF800F8EE666A9FED406A67EE867A76EEA77A17
:101C0800F7EE006A77EEA67A27EE277A38E007EE35
:101C1800100AF8EE476A9FED396A86EE267A324B4B
:101C28001B6BC3F3080306EE903AF8EE666A9FED65
:101C3800326A67EE867A76EEA77AF7EE006A77EE72
:101C4800A67A27EE277A1BE007EE100AF8EE476A15
:101C58009FED286A86EE267A234B1B6BC3F3080395
:101C680006EE903AF8EE666A9FED236A67EE867A8A
:101C780076EEA77AF7EE006A77EEA67A27EE277A4D
:101C8800194B1B6BC3F34623013307EE903AF8EE6A
:101C9800677AC7EE276AFCEEE67A17EE900A5DF8D7
:101CA800044B704707EE100AF8EE476A9FED146A76
:101CB80086EE267A0C4B1B6BC3F3080306EE903AAC
:101CC800F8EE666A9FED0C6A67EE867A76EEA77A7A
:101CD800F7EE006A77EEA67A27EE277AD0E709486A
:101CE80070470348704700BF0044025800093D0090
:101CF8000090D0030024744A000000390024744C7A
:101D080020BCBE4B40787D01002800F0328170B5C0
:101D18000D4604469B4B1B6803F00F038B420BD206
:101D2800984A136823F00F030B431360136803F0FA
:101D38000F038B4240F01F81236813F0040F0CD06F
:101D48002269914B9B6903F070039A4205D98E4929
:101D58008B6923F070031A438A61236813F0080F14
:101D68000CD06269884BDB6903F070039A4205D98D
:101D78008549CB6923F070031A43CA61236813F0BD
:101D8800100F0CD0A269804BDB6903F4E0639A4220
:101D980005D97D49CB6923F4E0631A43CA612368F6
:101DA80013F0200F0CD0E269774B1B6A03F0700325
:101DB8009A4205D974490B6A23F070031A430A62E0
:101DC800236813F0020F0CD0E2686F4B9B6903F095
:101DD8000F039A4205D96C498B6923F00F031A4304
:101DE8008A61236813F0010F41D0674A936923F48D
:101DF8007063A1680B4393616368022B0AD0032BBD
:101E080027D0012B2CD0604A126812F0040F06D19B
:101E18000120ADE0126812F4003F00F0AE805A498C
:101E28000A6922F0070213430B6101F0FFFA064624
:101E3800554B1B6903F038036268B3EBC20F16D029
:101E480001F0F4FA801B41F288339842F0D903205C
:101E58008EE04D4A126812F0007FE0D1012087E041
:101E6800494A126812F4807FD9D1012080E02368A2
:101E780013F0020F0CD0E268434B9B6903F00F0389
:101E88009A4205D240498B6923F00F031A438A61AD
:101E98003C4B1B6803F00F03AB420AD9394A13685D
:101EA80023F00F032B431360136803F00F03AB42B7
:101EB80065D1236813F0040F0CD02269324B9B695B
:101EC80003F070039A4205D22F498B6923F07003FF
:101ED8001A438A61236813F0080F0CD062692A4BF1
:101EE800DB6903F070039A4205D22749CB6923F0D6
:101EF80070031A43CA61236813F0100F0CD0A2694B
:101F0800214BDB6903F4E0639A4205D21E49CB6991
:101F180023F4E0631A43CA61236813F0200F0CD03E
:101F2800E269194B1B6A03F070039A4205D21649FD
:101F38000B6A23F070031A430A62FFF7EBFD12499C
:101F48008B69C3F30323114AD35C03F01F03D84002
:101F58008B6903F00F03D35C03F01F0320FA03F32C
:101F68000B4A13600B4B18600B4B186801F0FCF917
:101F780070BD012070470120FAE70120F8E7012031
:101F8800F6E700BF002000520044025888460008C7
:101F9800080000200C0000200400002008B5FFF70E
:101FA800B9FD0B4A9369C3F303230A49CB5C03F0D9
:101FB8001F0320FA03F3926902F00F02885C00F015
:101FC8001F0023FA00F0044A1060044A136008BD99
:101FD8000044025888460008080000200C00002031
:101FE80008B5FFF7DBFF054BDB69C3F30213044AAF
:101FF800D35C03F01F03D84008BD00BF004402585B
:102008008846000808B5FFF7C9FF054BDB69C3F32D
:102018000223044AD35C03F01F03D84008BD00BF65
:102028000044025888460008404B9B6A03F00303AB
:10203800032B79D070B505460E463C4A136823F049
:102048008063136001F0F2F90446384B1B6813F003
:10205800006F06D001F0EAF9031B022BF5D9032023
:1020680070BD324B9A6A22F47C32296842EA013206
:102078009A626A68013AC2F30802A96801394902FA
:1020880089B20A43E9680139090401F4FE010A43E7
:1020980029690139090601F0FE410A439A63DA6A9F
:1020A80022F0C00269690A43DA62DA6A22F0200281
:1020B800A9690A43DA62DA6A22F01002DA62D96B95
:1020C8001B4A0A40E96942EAC102DA63DA6A42F065
:1020D8001002DA62C6B91A46DB6A43F40023D362F7
:1020E800124A136843F08063136001F09FF90446B5
:1020F8000E4B1B6813F0006F14D101F097F9001B09
:102108000228F5D90320ABE7012E05D0074AD36A88
:1021180043F40013D362E3E7044AD36A43F4801319
:10212800D362DDE700209BE7012070470044025896
:102138000700FFFF404B9B6A03F00303032B79D092
:1021480070B505460E463C4A136823F08053136069
:1021580001F06CF90446384B1B6813F0005F06D099
:1021680001F064F9031B022BF5D9032070BD324B33
:102178009A6A22F07C72296842EA01529A626A6875
:10218800013AC2F30802A9680139490289B20A432F
:10219800E9680139090401F4FE010A432969013992
:1021A800090601F0FE410A431A64DA6A22F4406221
:1021B80069690A43DA62DA6A22F40072A9690A4391
:1021C800DA62DA6A22F48072DA62596C1B4A0A40CF
:1021D800E96942EAC1025A64DA6A42F48072DA6250
:1021E800C6B91A46DB6A43F48003D362124A1368FD
:1021F80043F08053136001F019F904460E4B1B6835
:1022080013F0005F14D101F011F9001B0228F5D971
:102218000320ABE7012E05D0074AD36A43F0807349
:10222800D362E3E7044AD36A43F40003D362DDE7E9
:1022380000209BE701207047004402580700FFFF79
:10224800F8B50446036813F0006F30D0836EB3F519
:10225800001F26D00ED8EBB1B3F5801F07D102219D
:102268000830FFF7E1FE054645B12E4621E001267C
:1022780035461EE0B3F5401F09D10025984A136D75
:1022880023F44013A16E0B431365002611E00126C9
:1022980035460EE0924AD36A43F40033D3620025F0
:1022A800ECE702212830FFF745FF0546DCE700266A
:1022B8003546236813F4807F14D0A36D042B32D8DD
:1022C800DFE803F003232A080800854AD36A43F4A9
:1022D8000033D36255BB824A136D23F00703A16D07
:1022E8000B431365236813F4007F31D0E36D802B13
:1022F8004CD020D8002B43D0402B19D1002104F119
:102308000800FFF791FE05461AE0002104F10800D5
:10231800FFF78AFE0546DDE7002104F12800FFF7F4
:1023280009FF0546D6E701263546DBE72E46D9E7FD
:10233800012635460CE0C02B02D0B3F5807F1CD1B6
:102348005DBB674A136D23F4E073E16D0B431365BE
:10235800236813F4806F46D0D4F8A830B3F5800F03
:1023680039D01FD88BB3B3F5001F18D1002104F161
:102378000800FFF759FE05461AE001263546E7E74B
:10238800574AD36A43F40033D362D9E7002104F1F2
:102398002800FFF7CFFE0546D2E72E46D8E70126EC
:1023A800354620E0B3F5C00F02D0B3F5000F09D1D0
:1023B800C5B94B4A936D23F46003D4F8A8100B43B6
:1023C800936510E0012635460DE0454AD36A43F48B
:1023D8000033D362ECE7002104F12800FFF7AAFEDE
:1023E8000546E5E72E46236813F4006F24D0D4F899
:1023F800AC30B3F1007F42D00ED8002B39D0B3F106
:10240800807F06D1002104F10800FFF70DFE054684
:1024180008E0012635460FE0B3F1407F02D0B3F162
:10242800806F23D1002D31D12D4A936D23F0E063C5
:10243800D4F8AC100B439365236813F0007F2ED0BB
:10244800E36C202B40D026D833B1102B20D1244A5E
:10245800D36A43F40033D362002D3CD1204AD36CB5
:1024680023F03003E16C0B43D36418E001263546B2
:10247800E2E71B4AD36A43F40033D362D2E7002170
:1024880004F12800FFF756FE0546CBE72E46D3E7B2
:102498000126354603E0302BDED001263546236879
:1024A80013F4805F2DD0236EB3F5005F4FD019D899
:1024B800002B46D0B3F5805F0FD1002104F108004E
:1024C800FFF7B2FD054613E0022104F10800FFF70B
:1024D800ABFD0546C0E72E46E1E70126354610E08C
:1024E80000440258B3F5405F02D0B3F5804F25D1C0
:1024F800002D33D1774A136D23F4E043216E0B434B
:102508001365236813F4005F38D0636EB3F5003F9A
:1025180053D028D843B1B3F5803F21D1012104F12C
:102528000800FFF781FD0546002D4DD1694A136D5E
:1025380023F4E023616E0B4313651FE00126354643
:10254800DFE7644AD36A43F40033D362D0E700215B
:1025580004F12800FFF7EEFD0546C9E72E46D0E74F
:10256800012635460AE0B3F5802FDDD0B3F5A02F5C
:10257800DAD0B3F5403FD7D001263546236813F4A7
:10258800804F31D0D4F8B030B3F1005F45D020D8B7
:1025980043B1B3F1805F19D1012104F10800FFF7BD
:1025A80043FD0546002D3FD14A4A936D23F0E04391
:1025B800D4F8B0100B43936516E0012104F128000C
:1025C800FFF7B8FD0546AFE72E46D7E701263546A3
:1025D8000AE0B3F1804FE5D0B3F1A04FE2D0B3F1F8
:1025E800405FDFD001263546236813F4004F09D039
:1025F800236FB3F1805F19D0B3F1005F24D0D3B15A
:1026080001263546236813F0807F33D0A36C032B53
:102618005BD8DFE803F027225327012104F12800C3
:10262800FFF788FD0546BDE72E46DDE7294AD36A50
:1026380043F40033D36275B9264A136D23F040532F
:10264800216F0B431365DDE7012104F10800FFF753
:10265800EBFC0546EFE72E46D4E71E4AD36A43F45F
:102668000033D362A5BB1B4AD36C23F00303A16CD0
:102678000B43D364236813F4800F2DD1236813F020
:10268800010F00F0A580E36F282B00F29F80DFE8A0
:1026980003F08D9D9D9D9D9D9D9D879D9D9D9D9DCF
:1026A8009D9D969D9D9D9D9D9D9D8D9D9D9D9D9D69
:1026B8009D9D8D9D9D9D9D9D9D9D8D00022104F15B
:1026C8000800FFF7B1FC0546CCE701263546D1E7FF
:1026D8002E46CFE700440258914A136843F48073AA
:1026E800136000F0A3FE07468D4B1B6813F4807F30
:1026F80005D100F09BFEC01B6428F5D90325002DE9
:102708004AD1884B1B6FD4F8B420534013F4407F50
:102718000CD0844B1A6F22F44072196F41F4803147
:102728001967196F21F4803119671A67D4F8B43022
:10273800B3F5807F15D08DBBD4F8B43003F4407264
:10274800B2F5407F1ED0774A136923F47C53136196
:1027580074490B6FD4F8B420C2F30B0213430B6710
:102768008CE700F063FE07466E4B1B6F13F0020FF9
:10277800E1D100F05BFEC01B41F288339842F3D9E7
:102788000325D8E76748026922F47C52664901EAC2
:10279800131313430361DBE72E466FE72E466DE7FD
:1027A800012104F10800FFF73FFC0546E5B95D4A41
:1027B800536D23F03803E16F0B43536508E00121A3
:1027C80004F12800FFF7B6FC0546EFE70126354679
:1027D800236813F0020F17D0A36F052B28D8DFE862
:1027E80003F00B05200B0B0B2E46F1E7012104F13A
:1027F8000800FFF719FC0546EDB94A4A536D23F066
:102808000703A16F0B435365236813F0040F23D00C
:10281800D4F89430052B45D8DFE803F0150F3D15A3
:102828001515012104F12800FFF784FC0546E3E7AC
:1028380001263546E8E72E46E6E7012104F10800BF
:10284800FFF7F2FB054685BB364A936D23F0070375
:10285800D4F894100B439365236813F0200F34D0F9
:10286800D4F89030B3F1005F4ED023D843B1B3F120
:10287800805F1CD1002104F10800FFF7D5FB054655
:10288800002D48D1274A536D23F0E043D4F8901027
:102898000B43536519E0012104F12800FFF74AFCB6
:1028A8000546D0E701263546D6E72E46D4E7012669
:1028B80035460AE0B3F1804FE2D0B3F1A04FDFD044
:1028C800B3F1405FDCD001263546236813F0400F92
:1028D80037D0D4F89C30B3F5006F53D026D843B125
:1028E800B3F5806F19D1002104F10800FFF79CFBB4
:1028F8000546002D4DD10B4A936D23F4E053D4F8CF
:102908009C100B4393651CE0022104F12800FFF79B
:1029180011FC0546B4E72E46D7E70126354610E0F8
:102928000048025800440258CFFFFF00B3F5805F0B
:10293800DFD0B3F5A05FDCD0B3F5406FD9D0012666
:102948003546236813F0800F33D0D4F8A030B3F5A0
:10295800804F00F0A38021D843B1B3F5005F1AD1AE
:10296800002104F10800FFF75FFB0546002D40F049
:102978009C80814A936D23F46043D4F8A0100B43E4
:10298800936516E0022104F12800FFF7D3FB054602
:10299800AFE72E46D5E7012635460AE0B3F5004FE6
:1029A800E4D0B3F5204FE1D0B3F5C04FDED0012617
:1029B8003546236813F0080F0CD0D4F88430B3F5EB
:1029C800805F74D06C4A536D23F44053D4F884105C
:1029D8000B435365236813F0100F0CD0D4F89830CC
:1029E800B3F5807F6CD0644A936D23F44073D4F8B8
:1029F80098100B439365236813F4002F0BD0D4F879
:102A0800A430B3F5803F74D0B3F5003F67D0002BF6
:102A18005FD001263546236813F4802F0CD0D4F8F4
:102A28008830B3F5001F7CD0B3F5401F6FD0B3F5E5
:102A3800801F67D001263546236813F4803F08D0ED
:102A4800236D002B76D0B3F5803F00F081800126FE
:102A58003546236813F0005F40F08380236813F441
:102A6800003F00F08E80D4F88030B3F5807F00F00E
:102A7800EC8040F28380B3F5007F03D0B3F5407F4C
:102A880040F0E180002D40F0E6803B4A536D23F48E
:102A98004073D4F880100B43536572E0022104F1AF
:102AA8002800FFF747FB054660E72E4681E702212D
:102AB80004F12800FFF73EFB002883D0012681E7B8
:102AC800022104F12800FFF735FB00288BD00126EE
:102AD80089E7002104F10800FFF7A6FA05467DB949
:102AE800254A936D23F44033D4F8A4100B4393651F
:102AF80091E7022104F12800FFF71CFB0546EEE7E9
:102B08002E4688E71C4AD36A43F40033D3627DB962
:102B1800194A536D23F44013D4F888100B435365B6
:102B28008AE7012104F12800FFF704FB0546EEE7D8
:102B38002E4681E7104AD36A43F40033D36275B94D
:102B48000D4AD36C23F48033216D0B43D36480E7A3
:102B5800022104F10800FFF767FA0546EFE72E4661
:102B680077E7022104F12800FFF7E4FA00283FF490
:102B780075AF012672E700BF00440258002B81D0D0
:102B88000126236813F4801F06D04F4A136D23F0E3
:102B98000043616F0B431365236813F0805F07D010
:102BA800494A136923F48043D4F8B8100B431361DE
:102BB800236813F4001F06D0434A136D23F0807373
:102BC800E16E0B431365236813F0804F09D03E4B29
:102BD8001A6922F400421A611A69D4F8BC100A432F
:102BE8001A612368002B06DA374AD36C23F0405366
:102BF800616D0B43D364236813F4000F07D0324A86
:102C0800536D23F44003D4F88C100B435365636869
:102C180013F0010F21D1636813F0020F26D1636806
:102C280013F0040F2BD1636813F0080F30D16368D9
:102C380013F0100F35D1636813F0200F3AD106B1A5
:102C480001263046F8BD01269BE71F4AD36A43F4A4
:102C58000033D36216E72E4693E7002104F10800FB
:102C6800FFF7E2F90028D6D00646D4E7012104F19F
:102C78000800FFF7D9F90028D1D00646CFE702218E
:102C880004F10800FFF7D0F90028CCD00646CAE7BF
:102C9800002104F12800FFF74DFA0028C7D00646A6
:102CA800C5E7012104F12800FFF744FA0028C2D043
:102CB8000646C0E7022104F12800FFF73BFA002886
:102CC800BDD00126BDE700BF0044025808B5FFF794
:102CD80065F9054B1B6AC3F30213044AD35C03F07E
:102CE8001F03D84008BD00BF0044025888460008AA
:102CF80010B4784B9A6A9C6AC4F3053CD96AC1F34C
:102D08000011DB6BC3F3CC0301FB03F314F47C3F2A
:102D180000F0DB8002F0030207EE903AF8EE677AE3
:102D2800012A66D0022A00F0B380E2B107EE10CA89
:102D3800F8EE476A9FED686A86EE267A654B9B6BCC
:102D4800C3F3080306EE903AF8EE666A9FED636AED
:102D580067EE867A76EEA77AF7EE006A77EEA67ABD
:102D680027EE277A61E05B4B1B6813F0200F23D016
:102D780058490A68C2F3C102594BD34007EE103ACA
:102D8800F8EE476A07EE10CAB8EE476A86EE867A0A
:102D98008B6BC3F3080306EE903AF8EE666A9FED74
:102DA8004F6A67EE867A76EEA77AF7EE006A77EED4
:102DB800A67A27EE277A38E007EE10CAF8EE476AB7
:102DC8009FED486A86EE267A424B9B6BC3F3080355
:102DD80006EE903AF8EE666A9FED406A67EE867AEC
:102DE80076EEA77AF7EE006A77EEA67A27EE277ACC
:102DF8001BE007EE10CAF8EE476A9FED376A86EEC9
:102E0800267A344B9B6BC3F3080306EE903AF8EE30
:102E1800666A9FED326A67EE867A76EEA77AF7EEF3
:102E2800006A77EEA67A27EE277A2A4A936BC3F3CD
:102E3800462307EE903AF8EE677AF7EE006A77EEE7
:102E4800A67A87EE276ABCEEC66A80ED006A936BA5
:102E5800C3F3064307EE903AF8EE677A77EEA67A60
:102E680087EE276ABCEEC66A80ED016A936BC3F3EE
:102E7800066307EE903AF8EE677A77EEA67AC7EE21
:102E8800276AFCEEE66AC0ED026A5DF8044B7047FB
:102E980007EE10CAF8EE476A9FED136A86EE267AA7
:102EA8000C4B9B6BC3F3080306EE903AF8EE666A88
:102EB8009FED0A6A67EE867A76EEA77AF7EE006AE1
:102EC80077EEA67A27EE277AAFE700230360436000
:102ED8008360DAE7004402580024744A000000398D
:102EE8000090D0030024744C20BCBE4B10B4784B27
:102EF8009A6A9C6AC4F3055CD96AC1F300215B6CC9
:102F0800C3F3CC0301FB03F314F07C7F00F0DB80F8
:102F180002F0030207EE903AF8EE677A012A66D0CB
:102F2800022A00F0B380E2B107EE10CAF8EE476A51
:102F38009FED686A86EE267A654B1B6CC3F308031F
:102F480006EE903AF8EE666A9FED636A67EE867A57
:102F580076EEA77AF7EE006A77EEA67A27EE277A5A
:102F680061E05B4B1B6813F0200F23D058490A68B7
:102F7800C2F3C102594BD34007EE103AF8EE476A44
:102F880007EE10CAB8EE476A86EE867A0B6CC3F372
:102F9800080306EE903AF8EE666A9FED4F6A67EE10
:102FA800867A76EEA77AF7EE006A77EEA67A27EEAB
:102FB800277A38E007EE10CAF8EE476A9FED486AAC
:102FC80086EE267A424B1B6CC3F3080306EE903A52
:102FD800F8EE666A9FED406A67EE867A76EEA77A23
:102FE800F7EE006A77EEA67A27EE277A1BE007EE5F
:102FF80010CAF8EE476A9FED376A86EE267A344B98
:103008001B6CC3F3080306EE903AF8EE666A9FED70
:10301800326A67EE867A76EEA77AF7EE006A77EE7E
:10302800A67A27EE277A2A4A136CC3F3462307EEBB
:10303800903AF8EE677AF7EE006A77EEA67A87EEAE
:10304800276ABCEEC66A80ED006A136CC3F30643B8
:1030580007EE903AF8EE677A77EEA67A87EE276A57
:10306800BCEEC66A80ED016A136CC3F3066307EE13
:10307800903AF8EE677A77EEA67AC7EE276AFCEE02
:10308800E66AC0ED026A5DF8044B704707EE10CAA5
:10309800F8EE476A9FED136A86EE267A0C4B1B6C96
:1030A800C3F3080306EE903AF8EE666A9FED0A6AE3
:1030B80067EE867A76EEA77AF7EE006A77EEA67A5A
:1030C80027EE277AAFE70023036043608360DAE7DF
:1030D800004402580024744A000000390090D003CC
:1030E8000024744C20BCBE4BF0B583B000236BE0C9
:1030F80085685E000324B44025EA0405CC68B44022
:103108002C438460456825EA0C054C68C4F3001418
:103118009C402C43446069E0DD08083550F82540A0
:1031280003F0070C4FEA8C0C4FF00F0E0EFA0CFE52
:1031380024EA0E0E0C6904FA0CF444EA0E0440F872
:1031480025406BE0092400E0002404FA0EF42C4327
:103158000CF1020C694D45F82C404FF0B04425683D
:10316800D44325EA02064F6817F4801F01D042EACB
:1031780005064FF0B0452E606D6804EA05064F68F5
:1031880017F4001F01D042EA05064FF0B0456E6003
:10319800D5F8845004EA05064F6817F4003F01D0BB
:1031A80042EA05064FF0B045C5F88460D5F880506E
:1031B8002C404E6816F4803F01D042EA05044FF0D7
:1031C800B042C2F8804001330A6832FA03F400F0D2
:1031D80092804FF0010C0CFA03FC1CEA0202F2D0B8
:1031E8004C6804F00304013C012C81D94C6804F0BC
:1031F8000304032C0CD0C4685D004FF0030C0CFAD8
:1032080005FC24EA0C0C8C68AC4044EA0C04C4604D
:103218004C6804F00304022C3FF47EAF04684FEAC4
:10322800430E4FF0030C0CFA0EFC24EA0C0C4C680D
:1032380004F0030404FA0EF444EA0C0404604C6835
:1032480014F4403FBFD02E4CD4F8F45045F002059A
:10325800C4F8F450D4F8F44004F002040194019C3A
:103268004FEA930C0CF10205244C54F8255003F056
:10327800030E4FEA8E0E0F2404FA0EF425EA040515
:10328800204CA0423FF460AF04F58064A04222D0F5
:1032980004F58064A04220D004F58064A0421ED0CA
:1032A80004F58064A0421CD004F58064A0421AD0C2
:1032B80004F58064A04218D004F58064A04216D0BA
:1032C80004F58064A04214D004F58064A0423FF461
:1032D80039AF0A2439E7012437E7022435E7032404
:1032E80033E7042431E705242FE706242DE70724D4
:1032F8002BE7082429E703B0F0BD00BF00040058FD
:1033080000440258000002580AB18161704709045C
:1033180081617047134BDB6813F0040F07D1114B21
:10332800DB6803F0070383421AD00120704710B509
:103338000C4AD36823F007030343D36000F076F800
:103348000446084B5B6813F4005F07D100F06EF881
:10335800001BB0F57A7FF4D9012000E0002010BDF1
:103368000020704700480258104B1B780BB9012009
:10337800704710B504464FF47A70B0FBF3F30C4A6B
:103388001068B0FBF3F0FDF7E9FA68B90F2C01D922
:1033980001200AE0002221464FF0FF30FDF7CAFA6B
:1033A800044B1C60002000E0012010BD000000203C
:1033B8000C0000200400002010B50320FDF7A8FA37
:1033C800FEF7A8FB0F498B69C3F303230E4AD35CAE
:1033D80003F01F03D8408B6903F00F03D35C03F09D
:1033E8001F0320FA03F3094A1360094B18600F20E2
:1033F800FFF7BAFF10B10124204610BD0446FDF7BF
:1034080035FAF9E700440258884600080800002009
:103418000C000020034B1B78034A11680B4413600F
:10342800704700BF000000202C020020014B1868E4
:10343800704700BF2C02002038B50446FFF7F6FF9E
:103448000546B4F1FF3F02D0044B1B781C44FFF73C
:10345800EDFF401BA042FAD338BD00BF000000209A
:10346800014B1868000C70470010005CF0B44B6A00
:1034780033B1B2F1406F03D08B6A0468013B23611A
:103488008C69002C6FD00E6A002E3BD003688C68C4
:10349800DC61CC69F4B1CB6A0D6B2B434D6B2B43CC
:1034A8004D6A2B434D6943EA85430D692B430D6AE9
:1034B8002B43CD682B4323438C6923430C68234358
:1034C800046813436361B2F1406F19D003684A6816
:1034D8009A6115E0CB6A0D6B2B434D6B2B434D6AFC
:1034E8002B434D6943EA85430D692B430D6A2B43F2
:1034F80023438C69234309680B43016813434B61D9
:10350800F0BC7047CD69D5B1CB6A0F6B3B434F6BAD
:103518003B434F6A3B434F6943EA87433343CE6893
:1035280033432B4323430C682343046813436361E9
:10353800B2F1406FE4D003684A689A61E0E7CB6A69
:103548000F6B3B434F6B3B434F6A3B434F6943EA27
:1035580087431E4345EA0603234309680B43016872
:1035680013434B61CCE70D6A002D36D003688C6895
:10357800DC61CC69E4B1CB6A0D6B2B434D6B2B43FB
:103588004D6A2B434D6943EA85430D692B430D6A08
:103598002B43CD682B4323438C692343046813438F
:1035A8006361B2F1406FABD003684A689A61A7E7DC
:1035B800CB6A0D6B2B434D6B2B434D6A2B434D69E7
:1035C80043EA85430D692B430D6A2B431C438B69E2
:1035D8001C43036814435C6192E7CE69CEB1CB6AA1
:1035E8000F6B3B434F6B3B434F6A3B434F6943EA87
:1035F80087432B43CD682B4333432343046813434A
:103608006361B2F1406F3FF47BAF03684A689A6127
:1036180076E7D1F824C0BCF1000F3FF471AFCB6A54
:103628000F6B3B434F6B3B434CEA03074B6947EA3D
:1036380083473D432E433443036814435C615FE78B
:103648002DE9F84305460F4616469946DDF82080D1
:103658002C68A4683C4214BF4FF0010C4FF0000CDA
:10366800B44514D0B8F1FF3FF2D0FFF7DFFEA0EB6E
:103678000900404502D8B8F1000FE9D1042385F8C4
:1036880041306B6C43F001036B64012000E00020C3
:10369800BDE8F88370472DE9F04182B004460F4633
:1036A8001646FFF7C3FE94F840C05FFA8CFCBCF1E5
:1036B800010F3CD00546012384F8403094F841C0FE
:1036C8005FFA8CFC9C4508D04FF00208002384F870
:1036D8004030404602B0BDE8F08100226264022317
:1036E80084F841300096034620212046FFF7A8FFC2
:1036F80080460028EAD1002239462046FFF7B6FE68
:103708007B6A1BB1012384F84130DFE700962B4622
:10371800012202212046FFF793FF80460028D5D1D9
:1037280023680222DA60012384F84130CEE74FF0A3
:103738000208CEE72DE9F04383B0044689461746D0
:10374800FFF774FED4F8008094F84030DBB2012B08
:1037580057D00646012384F8403094F84150EDB222
:103768009D4207D00225002384F84030284603B044
:10377800BDE8F08300236364B9F1000F3CD0122345
:1037880084F84130D8F810300133E362D8F81030AB
:103798000133A362C4F82490D8F8143023F04063AE
:1037A800C8F814300025E36A9BB10097334601221C
:1037B80004212046FFF744FF054650B9636A1B7889
:1037C80088F82030616A01316162E16A0139E16299
:1037D800E9E71DB1012384F84130C4E70097334677
:1037E800012202212046FFF72BFF05460028F1D1D0
:1037F80023680222DA60EDE7636C43F00803636430
:10380800B1E70225B2E781647047000070B582B065
:103818000446FFF70BFE002C45D0064694F84130CD
:10382800002B37D025682A6822F4F852A16801399C
:1038380042EA01222A60A36C009333460022202129
:103848002046FFF7FDFE18BB21680B68174A1A408F
:103858006568E36843EA0563E5692B43256A2B43FA
:103868001A430A6021684A68114B13402569626946
:1038780042EA0542A5692A4313434B60226813684C
:1038880043F00103136000236364012384F841308B
:1038980002B070BD2046FFF7FDFE41F28831204698
:1038A800FFF7B1FFBEE70120F2E700BF2FFFFF00DF
:1038B800FEF8E0FF274AD2F8883043F47003C2F8D4
:1038C8008830254B1B6803F00F03062B06D8224AC5
:1038D800136823F00F0343F0070313601F4B1A68A4
:1038E80042F001021A6000221A6119681C4A0A4053
:1038F8001A60194B1B6813F0080F06D0164A136894
:1039080023F00F0343F007031360144B00229A615E
:10391800DA611A62134999621349D9621349196322
:103928005A639963DA6319645A64196821F4802127
:1039380019601A660E4B1A680E4B1340B3F1005FFC
:1039480003D20D4B0122C3F808210C4B43F2D202DB
:103958001A60704700ED00E0002000520044025851
:103968007FEDF6EA000202020000FF018002010179
:103978000010005C0000FFFF008000510040005272
:1039880010B503460C4A0D490D48006840B10C4873
:1039980000680344521A934206D8094A136010BDBE
:1039A8000748084C0460F2E700F0DCFB0C230360D6
:1039B8004FF0FF30F3E700BF0000022000040000D2
:1039C800300200200804002070B50C461646002579
:1039D80006E0AFF30080214601F8010B01350C46E3
:1039E800B542F6DB304670BD70B50C46164600256C
:1039F80004E014F8010BFCF79DFE0135B542F8DB35
:103A0800304670BD4FF0FF3070474FF400534B60A5
:103A180000207047012070470020704708B50E4904
:103A280000234B6102220A604FF480728A6100020F
:103A380048604FF48062CA614FF40052CA604B621A
:103A48008B624B63CB620B630B6141F28832034894
:103A5800FFF721FE08BD00BF340200206C020020E1
:103A680038B514460E4B02221A604FF480729A61E0
:103A7800000258604FF48062DA614FF080725A6237
:103A88009962084D41F2883219462846FFF703FE2D
:103A980041F2883221462846FFF74CFE38BD00BF68
:103AA800340200206C02002038B5204C012202218B
:103AB8002046FFF729FC0A20FFF7BEFC002202215E
:103AC8002046FFF721FC6420FFF7B6FC0122022103
:103AD8002046FFF719FC7820FFF7AEFC00240DE024
:103AE80003EBC3004200124D2A444000013201F0AA
:103AF8001F01285CFFF7B4FF0134A4B2234604EB8E
:103B0800C40251000A4A0A44517CFF290DD011F021
:103B1800800FE5D003EBC3035A00054B985CFFF711
:103B28007DFF7820FFF788FCE6E738BD00080258DB
:103B3800100000202DE9F0438BB0334BD3F8E02080
:103B480042F01002C3F8E020D3F8E02002F010029F
:103B58000192019AD3F8E02042F00802C3F8E0206D
:103B6800D3F8E02002F008020292029AD3F8E0208B
:103B780042F00202C3F8E020D3F8E02002F002028B
:103B88000392039AD3F8D42042F48042C3F8D42095
:103B9800D3F8D43003F480430493049B4FF4605368
:103BA80005930226069601250795032408940927FC
:103BB800099705A91548FFF797FA4FF00408CDF8BB
:103BC80014800696079508940997DFF8489005A988
:103BD8004846FFF789FA4023059306960795089407
:103BE8000A23099305A94846FFF77EFACDF8148001
:103BF800069607950894099705A90548FFF774FAEA
:103C08000BB0BDE8F08300BF00440258000C025816
:103C1800001002580004025810B51748174B0360EB
:103C28000024446101238361072343600462202345
:103C38008360C46114230361C460FFF7E7FD104B80
:103C480032221A605C605C614FF480729A614FF4B2
:103C58008062DA614FF40052DA605C629C625C63F5
:103C68001C62DC621C6322460F215C20FCF762FEAA
:103C78005C20FCF76FFE10BD6C0200200050005263
:103C880034020020DFF834D0FFF714FE0C480D4949
:103C98000D4A002302E0D458C4500433C4188C429F
:103CA800F9D30A4A0A4C002301E013600432A24205
:103CB800FBD300F05DFAFCF7E5FC7047000002203A
:103CC800000000207C010020A84600087C0100209C
:103CD80004040020FEE70000002310B50446C0E9F4
:103CE8000033C0E90433836081814366C281836104
:103CF800194608225C3000F0E7F90D4B63620D4B62
:103D0800A3620D4BE3620D4B23630D4B24629C426F
:103D180006D003F16802944202D0D0339C4205D108
:103D280004F15800BDE8104000F046BA10BD00BFCD
:103D3800213F0008433F00087B3F00089F3F0008E1
:103D4800B8020020024A0349034800F069B800BFDE
:103D580020010020C14400083001002041680C4BBC
:103D6800994210B5044601D000F0A6FBA168094BA2
:103D7800994202D0204600F09FFBE168064B994229
:103D880004D02046BDE8104000F096BB10BD00BF2F
:103D9800B8020020200300208803002010B50B4B38
:103DA8000B4C0C4A1A60204600220421FFF794FFAE
:103DB80004F1680001220921FFF78EFF04F1D00009
:103DC8000222BDE810401221FFF786BFF003002051
:103DD800B80200204D3D0008014800F0EEB900BFD0
:103DE800F9030020014800F0E9B900BFF9030020F9
:103DF80010B50446FFF7F0FF236A1BB1BDE8104079
:103E0800FFF7F0BF044B2362044B1B68002BF5D16E
:103E1800FFF7C4FFF2E700BF653D0008F00300208C
:103E28002DE9F8430746884614460026D4E901954B
:103E3800B9F1010905D52468002CF7D13046BDE851
:103E4800F883AB89012B07D9B5F90E30013303D0BC
:103E580029463846C04706436835E9E7036A70B51E
:103E6800846805460E460BB9FFF7C2FF636EDB0791
:103E780005D4A389980502D4A06D00F09EF9A38902
:103E8800190702D52369002B35D12146284600F0B1
:103E9800C5F880B34FF0FF35636EDA0705D4A38900
:103EA8009B0502D4A06D00F089F9284670BD002B4F
:103EB80004DAA2699A4217DC0A2915D023685A1C29
:103EC80022601970A36816F8011F013BA36000293E
:103ED800EDD1002B11DA22460A21284600F05FF8BE
:103EE8000130D7D00A25D7E72246284600F057F8F0
:103EF8000130E7D1CEE7013EE4E723685A1C22608F
:103F08000A221A70EEE70000024B01461868FFF714
:103F1800A5BF00BF2C01002010B50C46B1F90E104A
:103F280000F0FCF80028ABBF636DA3891B1823F4CD
:103F38008053ACBF6365A38110BD2DE9F0411F46D6
:103F48008B89DB0505460C46164605D5B1F90E10DA
:103F58000223002200F0D0F8A389B4F90E1023F44C
:103F68008053A38132463B462846BDE8F04100F025
:103F7800E7B810B50C46B1F90E1000F0BDF8431CB7
:103F8800A38915BF606523F4805343F48053A3814C
:103F980018BFA38110BDB1F90E1000F09DB8F8B597
:103FA8000E461446054618B1036A0BB9FFF720FF01
:103FB800A369A360A3891A0701D5236943B92146D8
:103FC800284600F02BF818B14FF0FF373846F8BDF7
:103FD80023682269981A6369F6B28342374605DC7A
:103FE8002146284600F068FA0028EDD1A368013B75
:103FF800A36023685A1C22601E706269431C9A429F
:1040080004D0A389DB07E1D50A2EDFD12146284653
:1040180000F052FA0028D9D0D6E7000038B5294B6D
:10402800054618680C4618B1036A0BB9FFF7E0FE9D
:10403800B4F90C30190722D4DA0607D409222A6009
:1040480043F04003A3814FF0FF3033E0580712D507
:10405800616B41B104F14403994202D0284600F053
:10406800AFF800236363A38923F02403A38100230B
:10407800636023692360A38943F00803A38123694C
:104088004BB9A38903F42073B3F5007F03D021460D
:10409800284600F05FFAB4F90C3013F001020AD098
:1040A8000022A26062695242A261226942B913F0F9
:1040B8008000C5D138BD990758BF6269A260F4E78E
:1040C8000020F7E72C01002002440346934200D168
:1040D800704703F8011BF9E738B5064D002304467D
:1040E80008462B60FFF78EFC431C02D12B6803B1F6
:1040F800236038BDF403002038B5074D0446084650
:10410800114600222A601A46FFF786FC431C02D19A
:104118002B6803B1236038BDF403002038B5074D80
:1041280004460846114600222A601A46FFF74CFC4E
:10413800431C02D12B6803B1236038BDF40300206F
:1041480038B5074D04460846114600222A601A462B
:10415800FFF74AFC431C02D12B6803B1236038BD2A
:10416800F4030020014B1868704700BF2C010020A1
:1041780070B50D4D0D4C641BA4100026A64209D144
:104188000B4D0C4C00F054FA641BA4100026A642F8
:1041980005D170BD55F8043B98470136EEE755F850
:1041A800043B98470136F2E7A0460008A0460008FD
:1041B800A0460008A44600087047704770470000F2
:1041C80038B50546002941D051F8043C0C1F002B96
:1041D800B8BFE41800F0E0F81D4A136833B963600B
:1041E80014602846BDE8384000F0DCB8A34208D97E
:1041F800206821188B4201BF19685B680918216083
:10420800EDE71A465B680BB1A342FAD9116850185A
:10421800A0420BD120680144501883421160E0D1BC
:1042280018685B68536008441060DAE702D90C2309
:104238002B60D6E7206821188B4204BF19685B6899
:10424800636004BF091821605460CAE738BD00BF25
:104258000004002070B50F4E0C463168054611B9B0
:1042680000F0D6F930602146284600F0D1F9431C09
:1042780003D14FF0FF34204670BDC41C24F0030462
:10428800A042F8D0211A284600F0C2F90130F2D134
:10429800EFE700BFFC0300202DE9F843CD1C25F013
:1042A800030508350C2D38BF0C25002D064601DB0B
:1042B800A94204D90C2333600020BDE8F883DFF855
:1042C800D48000F069F8D8F800301C4644BB294671
:1042D8003046FFF7BFFF431C044658D1D8F80040CA
:1042E8002746002F43D1002C4BD02368394630464F
:1042F80004EB030900F08CF9814542D121686D1A5D
:1043080029463046FFF7A6FF01303AD023682B44F0
:104318002360D8F800305A6862BBC8F800700FE014
:104328002268521B20D40B2A17D96119A342256091
:1043380018BF5960636808BFC8F8001062514B6025
:10434800304600F02FF804F10B00231D20F0070081
:10435800C21A1CBF1B1AA350AFE76268A3420CBF66
:10436800C8F800205A60EBE723466468AEE73C468D
:104378007F68B6E71A465B68A342FBD10023536007
:10438800DEE70C233360304600F00CF894E7056054
:10439800D6E700BF000400200148FFF70EBF00BFAA
:1043A800F80300200148FFF709BF00BFF803002009
:1043B800B1F90C202DE9F041160705460C4654D4F6
:1043C8004B68002B02DC0B6C002B48DDE66A002EE4
:1043D80045D0002312F480522F68216A2B6030D018
:1043E800626DA389590705D56368D21A636B0BB14F
:1043F800236CD21A0023E66A216A2846B047431C78
:10440800A38906D129681D292BD82A4A0A41D6072B
:1044180027D400226260D9042269226004D5421C94
:1044280001D12B6803B96065616B2F60B9B104F1E4
:104438004403994202D02846FFF7C2FE0023636373
:104448000DE001232846B0470246501CC9D12B680D
:10445800002BC6D01D2B01D0162B1ED12F6000209B
:1044680022E043F040031BB21BE00F69002FF6D097
:1044780093070E6808BF4B690F6018BF0023A6EBAF
:1044880007088B60B8F1000FE9DD216AA66A434688
:104498003A462846B047002808DCB4F90C3043F007
:1044A8004003A3814FF0FF30BDE8F0810744A8EB3B
:1044B8000008E7E7FEFFBFDF38B50B6905460C4685
:1044C80013B90025284638BD18B1036A0BB9FFF7A0
:1044D8008FFCB4F90C30002BF3D0626ED00704D4F3
:1044E800990502D4A06DFFF768FE28462146FFF71C
:1044F8005FFF636EDA070546E4D4A3899B05E1D420
:10450800A06DFFF75BFEDDE770B50C46B1F90E1044
:10451800002996B015461E460DDAA38913F0800FC0
:104528004FF0000114BF40234FF480630020316036
:104538002B6016B070BD6A4600F048F80028ECDB26
:10454800019901F47041A1F50053594259414FF4C2
:104558008063EBE78B89F7B59D0706460C4607D5C0
:1045680004F14703236023610123636103B0F0BDB5
:1045780001AB6A46FFF7C8FF009F0546394630463B
:10458800FFF78AFE48B9B4F90C309A05EED423F047
:10459800030343F00203A381E2E7A389206043F009
:1045A8008003A381019BC4E904075BB1B4F90E1031
:1045B800304600F01DF828B1A38923F0030343F027
:1045C8000103A381A3891D43A581CFE738B5074D12
:1045D80000230446084611462B60FFF716FA431CD1
:1045E80002D12B6803B1236038BD00BFF40300205B
:1045F80038B5064D0023044608462B60FFF70AFA33
:10460800431C02D12B6803B1236038BDF40300209A
:1046180038B5064D0023044608462B60FFF7B0F96D
:10462800431C02D12B6803B1236038BDF40300207A
:10463800F8B500BFF8BC08BC9E467047F8B500BF87
:08464800F8BC08BC9E46704757
:1046500068656C6C6F20776F726C64210D000000D0
:10466000010002000400060008000A000C0010000F
:10467000200040008000000108040204080101013C
:104680000101010307010000000000000102030412
:084690000102030406070809FA
:0846980070BCFF7F010000006F
:0446A000BD0200084F
:0446A400990200086F
:1046A80001000000100000000090D0030090D0032B
:1046B800C05A5A000000000000000000000000007E
:1046C8000002C15A5A00000000000000000000006B
:1046D800000000021164000000000000000000005B
:1046E8000000000000803A550000000000000000B3
:1046F800000000000000000144000000000000006D
:104708000000000000000000000236000000000069
:10471800000000000000000000000001B0160000CA
:104728000000000000000000000000000001B101CE
:104738000500A200A700A700000000000000000973
:1047480053280000000000000000000000000000E6
:104758000001C4800000000000000000000000000C
:1047680000000001296400000000000000000000B3
:10477800000000000080B1C0000000000000000040
:104788000000000000000001C0A5A5000000000016
:1047980000000000000000000002C1A5A500000004
:1047A80000000000000000000000000200000000FF
:1047B80000000000000000000000000000FF0000F2
:1047C8000000000003000000B802002030010020B3
:1047D80000000000B8020020200300208803002009
:1047E80000000000000000000000000000000000C1
:1047F80000000000000000000000000000000000B1
:1048080000000000000000000000000000000000A0
:0C48180000000000000000000000000094
:0400000508003C8D26
:00000001FF
